:100000000C942E010C945F010C945F010C945F0121
:100010000C945F010C945F010C945F010C945F01E0
:100020000C945F010C945F010C945F010C945F01D0
:100030000C945F010C945F010C945F010C945F01C0
:100040000C945F010C945F010C945F010C945F01B0
:100050000C945F010C945F010C945F010C949E075B
:100060000C945F010C9468070C943E070C945F019C
:100070000C945F010C945F010C945F010C945F0180
:100080000C945F010C945F010C945F010C945F0170
:100090000C945F010C945F010C945F010C945F0160
:1000A0000C945F010C945F010C945F010C945F0150
:1000B0000C945F010C945F010C945F010C945F0140
:1000C0000C945F010C945F010C945F010C945F0130
:1000D0000C945F010C945F010C9408070C94DE06ED
:1000E0000C945F010C9410030C9422030C94F70100
:1000F0000C9498030C9430030C94D4010C94E902F2
:100100000C9447020C942C030C94E4020C941A03F4
:100110000C94E8070C9407030C94E3010C94280357
:100120000C94A7010C9405020C940A030C9414037C
:100130000C941E030C9403030C943C050C94FF02D6
:100140000C94FB020C9436030C9494020C949703C9
:100150000C943A0300000A0B02090C0D0E08070369
:10016000040100000000000000000000000000008A
:10017000000000000000000000000000000000007F
:10018000121110000000000000000000000000003C
:100190000000000000000000000000002200250018
:1001A00028002B002E003100340002010000050160
:1001B00008010B0100002100240027002A002D0067
:1001C0003000330001010000040107010A010505A8
:1001D0000505070508080808020202020A0A0808BD
:1001E00004040404010101010101010103030303EB
:1001F00003030303040707070C0C0C0C0C0C0C0C7A
:100200000202020206060606060606060B0B0B0B8A
:100210000B0B0B0B010210202008081020401020AF
:1002200040800201020108040201010204081020BA
:1002300040808040201008040201800402018040B8
:100240002010080402010804020101020408102021
:1002500040800102040810204080E80711241FBEDE
:10026000CFEFD1E2DEBFCDBF00E00CBF12E0A0E0D7
:10027000B2E0E6E3F3E100E00BBF02C007900D92AD
:10028000AA32B107D9F723E0AAE2B2E001C01D9279
:10029000A83AB207E1F711E0CEE2D1E000E006C0F3
:1002A00021970109802FFE010E947D09CD32D107DF
:1002B00080E00807A9F70E9485080C9499090C941E
:1002C000000090E0FC01EC5EFD4F249182539E4FB4
:1002D000FC018491882399F090E0880F991FFC011C
:1002E000EC54FE4FA591B491FC01E656FE4F85916A
:1002F00094918FB7F894EC91E22BEC938FBF089513
:10030000FC01A089B18982E08C93A485B5851C92FB
:10031000A685B7858FEC8C93108EA489B58986E06D
:100320008C93A289B3898C9180618C93A289B389C3
:100330008C9188608C93A289B3898C9180688C930E
:100340000288F389E02D80818F7D80830895AF92AC
:10035000BF92CF92DF92EF92FF920F931F93CF93B2
:10036000DF936C017B018B01040F151FEB015E0114
:10037000AE18BF08C017D10759F06991D601ED91A9
:10038000FC910190F081E02DC6011995892B79F738
:10039000C501DF91CF911F910F91FF90EF90DF90FA
:1003A000CF90BF90AF900895FC01538D448D252FC1
:1003B00030E0842F90E0821B930B541710F0CF96FF
:1003C000089501970895FC01918D828D981761F031
:1003D000A28DAE0FBF2FB11D5D968C91928D9F5F48
:1003E0009F73928F90E008958FEF9FEF0895FC0127
:1003F000918D828D981731F0828DE80FF11D858DDA
:1004000090E008958FEF9FEF0895FC01918D228D6C
:10041000892F90E0805C9F4F821B91098F739927F1
:10042000089582E492E00E94050221E0892B09F4FC
:1004300020E0822F08958FED92E00E94050221E0D6
:10044000892B09F420E0822F0895FC01A48DA80FC8
:10045000B92FB11DA35ABF4F2C91848D90E0019606
:100460008F739927848FA689B7892C93A089B18926
:100470008C91837080648C93938D848D981306C0C7
:100480000288F389E02D80818F7D80830895EF922B
:10049000FF920F931F93CF93DF93EC0181E0888F3E
:1004A0009B8D8C8D98131AC0E889F989808185FF0E
:1004B00015C09FB7F894EE89FF896083E889F989B0
:1004C00080818370806480839FBF81E090E0DF91B2
:1004D000CF911F910F91FF90EF900895F62E0B8D05
:1004E00010E00F5F1F4F0F731127E02E8C8D8E11C0
:1004F0000CC00FB607FCFACFE889F989808185FF27
:10050000F5CFCE010E942502F1CFEB8DEC0FFD2F30
:10051000F11DE35AFF4FF0829FB7F8940B8FEA89E1
:10052000FB8980818062CFCFCF93DF93EC01888DF0
:100530008823B9F0AA89BB89E889F9898C9185FD5E
:1005400003C0808186FD0DC00FB607FCF7CF8C91EC
:1005500085FFF2CF808185FFEDCFCE010E9425027D
:10056000E9CFDF91CF910895282F30E0F901EC5ABF
:10057000FE4F9491F901EC5EFD4F449122533E4FA2
:10058000F9012491222309F435C0992311F19150E6
:100590009231F8F4E92FF0E08827EE52FD4F8F4FAB
:1005A0000C947D0903030703E402FB02FF02E90246
:1005B0000A03100314031A031E03220328032C0347
:1005C000E902300336033A03809180008F778093ED
:1005D0008000E22FF0E0EE0FFF1FE656FE4FA591E0
:1005E000B4918FB7F894EC91611148C040954E23B7
:1005F0004C938FBF0895809180008F7DE8CF8091CC
:100600008000877FE4CF84B58F7784BDE2CF84B547
:100610008F7DFBCF8091B0008F778093B000D9CFD2
:100620008091B0008F7DF9CF809190008F7780937B
:100630009000CFCF809190008F7DF9CF8091900076
:10064000877FF5CF8091A0008F778093A000C1CFE6
:100650008091A0008F7DF9CF8091A000877FF5CF9A
:10066000809120018F7780932001B3CF809120016A
:100670008F7DF9CF80912001877FF5CF4E2BB8CFAA
:100680003FB7F89480913E0290913F02A0914002C2
:10069000B091410226B5A89B05C02F3F19F00196E5
:1006A000A11DB11D3FBFBA2FA92F982F8827BC01CC
:1006B000CD01620F711D811D911D42E0660F771FF4
:1006C000881F991F4A95D1F708958F929F92AF92F4
:1006D000BF92CF92DF92EF92FF924B015C010E949A
:1006E00040036B017C010E9440036C197D098E0957
:1006F0009F09683E734081059105A8F321E0821AA5
:100700009108A108B10888EEC80E83E0D81EE11C4C
:10071000F11C81149104A104B10429F7FF90EF901A
:10072000DF90CF90BF90AF909F908F9008950895E5
:1007300090E080E00895E5E3F2E0108211821282F9
:10074000138214820895FB0101900020E9F731978C
:10075000AF01461B570BDC01ED91FC910280F38148
:10076000E02D19948F929F92AF92BF92EF92FF92D9
:100770000F931F93CF93DF93CDB7DEB7A1970FB63B
:10078000F894DEBF0FBECDBF7C01FA01CB0119A2E8
:10079000223008F42AE08E010F5D1F4F822E912C2B
:1007A000B12CA12CBF01A50194010E945B09F901A4
:1007B000CA016A300CF5605DD8016E938D01232B60
:1007C000242B252B79F790E080E0109721F0BD01D4
:1007D000C7010E94A303A1960FB6F894DEBF0FBE17
:1007E000CDBFDF91CF911F910F91FF90EF90BF9000
:1007F000AF909F908F900895695CDECFCF93DF9389
:10080000EC0160E08E810E94B40261E08E810E9462
:10081000B40260E08E810E94B4028BE891E00197FF
:10082000F1F7DF91CF910895CF92DF92EF92FF928F
:100830000F931F93CF93DF936C017C0187E0E80E49
:10084000F11CD0E0C0E0062F10E0B8010C2E02C071
:10085000759567950A94E2F76170F70181917F01C0
:100860000E94B4022196C430D10579F7C601DF9108
:10087000CF911F910F91FF90EF90DF90CF900C944C
:10088000FE03CF92DF92EF92FF920F931F93CF93CD
:10089000DF93EC01F62E642F8C810E94B4028D81CF
:1008A0008F3F19F060E00E94B4020F2D10E08F8599
:1008B00084FF25C06E0187E0C80ED11CF12CE12C0D
:1008C000B8010E2C02C0759567950A94E2F7617025
:1008D000F60181916F010E94B402FFEFEF1AFF0A47
:1008E00088E0E816F10461F7CE01DF91CF911F9106
:1008F0000F91FF90EF90DF90CF900C94FE03B80122
:1009000084E0759567958A95E1F7CE010E941404FD
:100910006F2DCE01DF91CF911F910F91FF90EF903E
:10092000DF90CF900C94140440E0682F80E993E0AE
:100930000C944104CF93DF93823029F490919F036C
:10094000986090939F038093A3031092A40380E484
:100950008093A50380E18093A60380E58093A7039D
:10096000809194030E946101809195038F3F11F063
:100970000E946101809196030E946101C0E9D3E069
:100980009E012059334080919F0384FD0AC084E07A
:1009900090E02196281739073CF48E810E9461016E
:1009A000EFCF88E090E0F5CF8BE39DE00197F1F782
:1009B00060E0809194030E94B40260E0809196030D
:1009C0000E94B402809195038F3F19F060E00E946D
:1009D000B40280919F0384FD39C063E080E993E015
:1009E0000E941404CBE4D6E4CE010197F1F763E052
:1009F00080E993E00E9414042197F1F763E080E915
:100A000093E00E94140483E592E00197F1F762E01D
:100A100080E993E00E94140480919F0380620E9409
:100A2000940484E08093A0038CE00E94940481E00D
:100A30000E9494048BE39FE10197F1F782E0809399
:100A4000A10386E0DF91CF910C94940480620E9410
:100A500094048BE496E40197F1F780919F03806200
:100A60000E94940483E592E00197F1F780919F033F
:100A700080620E949404D0CF41E00E94410481E052
:100A800090E008958F929F92AF92BF92DF92EF9283
:100A9000FF920F931F93CF93DF932AE0289FE001EB
:100AA000299FD00D1124C60FD71F4E010D2E000C0B
:100AB000AA08BB082AE0E22EF12CD7FDAAC02AE042
:100AC000B501A40182E492E00E94B2036EE172E0FB
:100AD00082E492E00E94A303E1E08091A3038111EC
:100AE000E0E0E195F0E0E057FC4F8489895F8068A1
:100AF0000E9494042AE0B501A40180E993E00E94D9
:100B0000B20367E272E080E993E00E94A303CE01A2
:100B1000B7010E9447098C01660F771FFB01E4585B
:100B2000FC4FD08061E0D0FE60E087E00E94B4021C
:100B300061E0D1FE60E086E00E94B40261E0D2FE96
:100B400060E084E00E94B40261E0D3FE60E083E0F4
:100B50000E94B40261E0D4FE60E082E00E94B40230
:100B600061E0D5FE60E088E00E94B40261E0D6FE5C
:100B700060E089E00E94B402000F111FF801E45800
:100B8000FC4F108161E010FF60E087E10E94B40239
:100B900061E011FF60E089E10E94B40261E012FFB0
:100BA00060E080E10E94B40261E013FF60E081E157
:100BB0000E94B40261E014FF60E082E10E94B4028E
:100BC00061E015FF60E083E10E94B40261E016FF7E
:100BD00060E084E10E94B402209751F461E08BE070
:100BE0000E94B40260ED77E080E090E00E9465032F
:100BF00068EE73E080E090E00E94650360E08BE0C7
:100C00000E94B402219781E0881A9108A108B108D6
:100C100054CFDF91CF911F910F91FF90EF90DF9014
:100C2000BF90AF909F908F900895CF9382E492E011
:100C30000E94E301C82F80933402803409F060C021
:100C40001092330210923202809331028093350267
:100C500080913102803409F060C080913002863288
:100C600009F05BC081E090E090932F0280932E0208
:100C7000109233021092320210923102109230021E
:100C800080912E0290912F02019709F06CC0609123
:100C90003602062E000C770B6053710970932D02FB
:100CA00060932C0280913702082E000C990BC0979C
:100CB00090932B0280932A026930710534F00A97D1
:100CC00020F090E080E00E94420580912C029091FB
:100CD0002D028A30910548F460912A0270912B020E
:100CE0006A30710510F40E94420510922F02109292
:100CF0002E021092330210923202CF910C949B0379
:100D0000863209F0A5CF80933002E0913202F09153
:100D10003302EB5CFD4F80839BCF809135028034A2
:100D200031F00E949B0310923302109232028091A4
:100D3000320290913302FC01EB5CFD4FC0830196BF
:100D40008430910529F0909333028093320298CF3A
:100D5000109233021092320210922F0210922E0241
:100D60000E949B038DCFCF91089580E090E0892B66
:100D700029F00E941B0281110E94000080E090E097
:100D8000892B49F080E090E0892B29F00E94000037
:100D900081110E94000080E090E0892B49F080E002
:100DA00090E0892B29F00E94000081110E94000030
:100DB0000E94110281110C94150608951F920F9242
:100DC0000FB60F9211240BB60F922F933F934F93B0
:100DD0005F936F937F938F939F93AF93BF93EF93A3
:100DE000FF9382E492E00E942502FF91EF91BF9170
:100DF000AF919F918F917F916F915F914F913F91B3
:100E00002F910F900BBE0F900FBE0F901F90189553
:100E10001F920F920FB60F9211240BB60F922F93C1
:100E20008F939F93EF93FF93E0915202F0915302BF
:100E30008081E0915802F091590282FD1DC090819D
:100E400080915B028F5F8F7320915C02821741F06B
:100E5000E0915B02F0E0EE5BFD4F958F80935B02CB
:100E6000FF91EF919F918F912F910F900BBE0F905B
:100E70000FBE0F901F9018958081F2CF1F920F9296
:100E80000FB60F9211240BB60F922F933F934F93EF
:100E90005F936F937F938F939F93AF93BF93EF93E2
:100EA000FF938FED92E00E942502FF91EF91BF9199
:100EB000AF919F918F917F916F915F914F913F91F2
:100EC0002F910F900BBE0F900FBE0F901F90189593
:100ED0001F920F920FB60F9211240BB60F922F9301
:100EE0008F939F93EF93FF93E091EF02F091F002C5
:100EF0008081E091F502F091F60282FD1DC09081A3
:100F00008091F8028F5F8F732091F902821741F070
:100F1000E091F802F0E0E152FD4F958F8093F802E6
:100F2000FF91EF919F918F912F910F900BBE0F909A
:100F30000FBE0F901F9018958081F2CF1F920F92D5
:100F40000FB60F9211242F933F938F939F93AF93DC
:100F5000BF9380913A0290913B02A0913C02B091E4
:100F60003D023091390223E0230F2D3758F50196C9
:100F7000A11DB11D2093390280933A0290933B0248
:100F8000A0933C02B0933D0280913E0290913F02BB
:100F9000A0914002B09141020196A11DB11D809324
:100FA0003E0290933F02A0934002B0934102BF9152
:100FB000AF919F918F913F912F910F900FBE0F9006
:100FC0001F90189526E8230F0296A11DB11DD2CFC0
:100FD000CF93DF93E2E4F2E01382128248EE53E013
:100FE00060E070E0448355836683778384E092E019
:100FF0009183808325E331E03587248724E331E042
:101000003787268720E331E0318B208B21E331E0E5
:10101000338B228B22E331E0358B248B26E331E0C6
:10102000378B268B118E128E138E148EEFEDF2E01D
:1010300013821282448355836683778391838083EE
:1010400085EC90E09587848784EC90E0978786878D
:10105000C0ECD0E0D18BC08B81EC90E0938B828B85
:1010600082EC90E0958B848B86EC90E0978B868B5E
:10107000118E128E138E148EE0E9F3E01382128229
:1010800086E192E09183808383E284838FEF85837E
:1010900087E286838BE187838DE180878FE181877B
:1010A00081E282871386148615861686178681E06C
:1010B0000E949A04ECE7F3E0D183C08389EF90E0CB
:1010C0009383828384EA90E09583848380EB90E02D
:1010D0009783868389E990E09187808782E990E011
:1010E0009387828782E890E09587848788EF90E0F5
:1010F0009787868780E890E0918B808B80E990E0ED
:10110000938B828BDF91CF910895789484B5826020
:1011100084BD84B5816084BD85B5826085BD85B59B
:10112000816085BD80916E00816080936E00109219
:101130008100809181008260809381008091810094
:101140008160809381008091800081608093800025
:101150008091B10084608093B1008091B000816083
:101160008093B00080919100826080939100809183
:1011700091008160809391008091900081608093C4
:1011800090008091A10082608093A1008091A100D5
:1011900081608093A1008091A00081608093A00075
:1011A00080912101826080932101809121018160E1
:1011B00080932101809120018160809320018091A2
:1011C0007A00846080937A0080917A0082608093B4
:1011D0007A0080917A00816080937A0080917A0011
:1011E000806880937A001092C10087E00E946101BC
:1011F00086E00E94610184E00E94610183E00E9418
:10120000610182E00E94610188E00E94610189E041
:101210000E9461018AE00E9461018BE00E946101ED
:1012200087E10E94610189E10E94610180E10E94E1
:10123000610181E10E94610182E10E94610183E11B
:101240000E94610184E10E94610182E492E00E94B7
:1012500080018FED92E00E94800182E00E949A045A
:10126000E1E08091A3038111E0E0E195F0E0E05737
:10127000FC4F84898F5F80680E94940461E272E071
:1012800080E993E00E94A3030E94B506FDCF97FB7F
:10129000072E16F4009407D077FD09D00E94850927
:1012A00007FC05D03EF4909581959F4F0895709569
:1012B00061957F4F0895A1E21A2EAA1BBB1BFD0169
:1012C0000DC0AA1FBB1FEE1FFF1FA217B307E40725
:1012D000F50720F0A21BB30BE40BF50B661F771F7D
:1012E000881F991F1A9469F760957095809590955D
:1012F0009B01AC01BD01CF010895EE0FFF1F881FB8
:101300008BBF0790F691E02D1994AA1BBB1B51E1EE
:1013100007C0AA1FBB1FA617B70710F0A61BB70B65
:10132000881F991F5A95A9F780959095BC01CD010A
:061330000895F894FFCFC0
:10133600000000004702A701D40194020502E30160
:10134600F701000000003C05A701980397030D0A6A
:0A13560000436F756E743A2000002A
:00000001FF
