:040000009FEF20F05E
:1000080000C019F001C018F00BC017F00CC016F0B2
:100018000DC015F0F5CF1DF0F8CF1AF0F7CF1BF093
:10002800F6CF1CF09EAABBD09E9A98EC20F000C098
:1000380031F0005026180DE1286A31C03CF0320E2C
:10004800E16E000EE26E2850E126D8B0E22A31C0F7
:10005800E6FF315027180CE131C055F0320EE16E41
:10006800000EE26E2850E126D8B0E22A31C0E6FF41
:100078003C50261809E15550271806E1010E306E4C
:10008800286A3C6A556A18D03250261803E0D8EC22
:100098001FF0286A320EE16E000EE26E2850E1264B
:1000A800D8B0E22A31C0E6FF282A28500A0A04E11B
:1000B800286A306AD8EC1FF03050010AD8A46FD0F3
:1000C80033C05AF0000E5B6E300E5A5C016E000EA3
:1000D8005B58026E01C05CF002C05DF034C056F09F
:1000E800000E576E300E565C586E000E5758596EFB
:1000F800800E0218006E800E005C02E1090E015CA1
:100108001CE3800E006E800E5918005C02E1585006
:1001180009080AE3800E5918006E800E005C02E19F
:10012800000E585C01E309D00001616B626B5CC092
:1001380063F05DC064F0E8EC1FF0800E5D18006E9F
:10014800800E005C02E1000E5C5C25E3800E006E10
:10015800800E5D18005C02E15C5009081CE3800E0B
:100168005918006E800E005C02E1000E585C13E323
:10017800800E006E800E5918005C02E15850090884
:100188000AE35CC061F05DC062F058C063F059C01A
:1001980064F0E8EC1FF0306A286AD8EC1FF01DC044
:1001A800F5FF1AC0F8FF1BC0F7FF1CC0F6FF19C007
:1001B80000F018C001F017C00BF016C00CF015C005
:0401C8000DF0110025
:0801CC000AAE029E000E1200B3
:1001D4000B840BAEF5EF00F0010E036E026A016AA8
:0A01E400006A0A360232FF0E120014
:0E01EE00026A016A006A086A036A000E1200C3
:1001FC000B820BAE08EF01F003680268016800681F
:08020C000A360232FF0E120057
:100214000CB04CEF01F00CA2F2EF01F00E6A000EEC
:10022400026463EF01F0F00E0214D8A42EEF01F083
:10023400023A01380F0B02260138F00B016E003828
:100244000F0B01260038F00B006E08380F0B002648
:100254000838F00B086E0E84D89002BE47EF01F008
:1002640008360036013602360E2A02BE47EF01F088
:1002740008360036013602360E2A02BE47EF01F078
:1002840008360036013602360E2A0E500364E8EFB3
:1002940001F0035E0BBC08AEEDEF01F0D880800ED8
:1002A40008640030000E002201220222D8A0EDEFE3
:1002B40001F0023201320032034AF2EF01F0EDEFB5
:1002C40001F001C002F000C001F008C000F0086AAB
:1002D400000E0E8602649AEF01F0F00E0214D8A408
:1002E40082EF01F0023A01380F0B02260138F00BBD
:1002F400016E00380F0B01260038F00B006E0E84DF
:10030400D89002BE47EF01F00036013602360E2ABD
:1003140002BE47EF01F00036013602360E2A02BE55
:1003240047EF01F00036013602360E2A47EF01F09E
:1003340001C002F000C001F0006A000E0E960E88A3
:100344000264C7EF01F0F00E0214D8A4B2EF01F07A
:10035400023A01380F0B02260138F00B016E0E84AD
:10036400D89002BE47EF01F0013602360E2A02BED3
:1003740047EF01F0013602360E2A02BE47EF01F0C4
:10038400013602360E2A47EF01F001C002F0016A7D
:10039400000E0E860264F7EF01F0F00E0214D8A4EA
:1003A400D6EF01F0023A0E84D89002BE47EF01F076
:1003B40002360E2A02BE47EF01F002360E2A02BEB2
:1003C40047EF01F002360E2A47EF01F0010E0C6EE2
:1003D400FFDEFAEF01F0020E0C6EF6DEFAEF01F02A
:1003E400040E0C6E09DFFAEF01F0080E0C6EFDDE50
:0203F4001200F5
:1003F6000D6A086A0050D8B4000C04180A6E0ABECA
:100406000D1E0B6A04AE02D0041E042A00AE02D0F2
:10041600001E002A005004100A6E0ABE1FD00450A7
:10042600085E003600340836045008260036060EEC
:100436000C6E00340836045000B0085E00A0082692
:1004460000360C2EF6D700A008260BB015D00DAE40
:10045600000C001E002A081E082A000C04AE09D053
:1004660000BE04D00050086E006AF1D7006A002A68
:10047600000C001E0B2AD3D7082A0450085CD8A407
:0E048600E6D7086A002A00AEE2D7FF0C12008B
:100494000B800BAE56EF02F0026A0AAEFF0E026E3C
:0C04A400016E006E0A360232FF0E1200DC
:1004B000025006180E6E086A096A0B6A0350076438
:1004C0004BEF03F006500A6E068E028E03500B6E41
:1004D0000750036E000E0B649BEF02F00B50075E9B
:1004E000D8B43CEF03F0070E07640AEF03F0075E91
:1004F00000C008F001C000F002C001F0026A074E1F
:100500003CEF03F00764DFEF02F0075E00C008F085
:1005100001C000F0016A074E3CEF03F00764BDEF35
:1005200002F0075E00C008F0006A074E3CEF03F0DF
:100530000764A4EF02F00AC002F005C001F004C095
:1005400000F0086A65EF04F0030E0764AFEF02F0F5
:10055000075E08380F0B086E074E3CEF03F0D8908B
:100560000832074E3CEF03F0D8900832074E3CEFBC
:1005700003F0D89008323CEF03F0030E0764CEEF8F
:1005800002F0075E08380F0B086E0038F00B0826E3
:1005900000380F0B006E074E3CEF03F0D89000328E
:1005A0000832074E3CEF03F0D89000320832074E75
:1005B0003CEF03F0D890003208323CEF03F0030E1A
:1005C0000764F6EF02F0075E08380F0B086E00387C
:1005D000F00B082600380F0B006E0138F00B0026D8
:1005E00001380F0B016E074E3CEF03F0D89001323B
:1005F00000320832074E3CEF03F0D890013200324F
:100600000832074E3CEF03F0D89001320032083236
:100610003CEF03F0030E076427EF03F0075E083892
:100620000F0B086E0038F00B082600380F0B006E19
:100630000138F00B002601380F0B016E0238F00B69
:10064000012602380F0B026E074E3CEF03F0D890E4
:100650000232013200320832074E3CEF03F0D890EC
:100660000232013200320832074E3CEF03F0D890DC
:100670000232013200320832096A000E0EAE30EF4B
:1006800004F0081E001E011E021E082A002201227C
:10069000022230EF04F00750D8A451EF03F065EFC9
:1006A00004F0096A02C00AF0028E068E0750035C4D
:1006B000076ED8B423EF04F0070E0764F1EF03F0E0
:1006C000075E0450096E0550046E0650056E066AFA
:1006D000074E23EF04F0070E0764C6EF03F0075E32
:1006E0000450096E0550046E056A074E23EF04F0AE
:1006F000070E0764A4EF03F0075E0450096E046A56
:10070000074E23EF04F0070E07648BEF03F00AC0D7
:1007100002F065EF04F0030E076496EF03F0075E46
:1007200009380F0B096E074E23EF04F0D8900932F9
:10073000074E23EF04F0D8900932074E23EF04F060
:10074000D890093223EF04F0030E0764B5EF03F0ED
:10075000075E09380F0B096E0438F00B09260438C0
:100760000F0B046E074E23EF04F0D89004320932C9
:10077000074E23EF04F0D89004320932074E23EFDE
:1007800004F0D8900432093223EF04F0030E07641A
:10079000DDEF03F0075E09380F0B096E0438F00B2C
:1007A000092604380F0B046E0538F00B04260538B3
:1007B0000F0B056E074E23EF04F0D890053204327C
:1007C0000932074E23EF04F0D89005320432093283
:1007D000074E23EF04F0D89005320432093223EF9C
:1007E00004F0030E07640EEF04F0075E09380F0BE8
:1007F000096E0438F00B092604380F0B046E053817
:10080000F00B042605380F0B056E0638F00B052695
:1008100006380F0B066E074E23EF04F0D890063211
:10082000053204320932074E23EF04F0D890063225
:10083000053204320932074E23EF04F0D890063215
:10084000053204320932086A000E0EAE30EF04F0B1
:10085000091E041E051E061E092A04220522062260
:100860000950082604500022055001220650022299
:100870000EBE47EF04F0D8A056EF04F0023201326A
:1008800000320832033E56EF04F060EF04F0D8B0B7
:100890005BEF04F0000E081E001E011E021E082A57
:1008A0000022012202220A7E5BEF04F0010E0C6E90
:1008B000B1DC67EF04F0020E0C6EACDC67EF04F005
:1008C000040E0C6E9BDC67EF04F0000E0C6E120041
:1008D0000134083609360450085E0550D8A0053C9E
:1008E000095E003601360F0E0C6E013408360936EB
:1008F000045000A006D0085E0550D8A0053C095E53
:1009000005D008260550D8B0053C0926003601362A
:100910000C2EEBD700B006D0045008260550D8B0F6
:08092000053C0926000012004D
:10092800086A096A000E0762036419EF05F00250AD
:1009380006180A6E075003267E0ED8A0AAEF04F008
:10094800035ED8B01EEF05F0AEEF04F0035ED8A04A
:1009580023EF05F0028E068E02C00EF001C00BF0E8
:1009680000C00DF000500402F4CF0CF00150050255
:10097800F4CF00F0F3CF08F00402F3500C26F45043
:100988000822000E00220D500502F3500C26F450E8
:100998000822000E002202500402F3500826F450E8
:1009A800002202500502016A000E0122F3500026BF
:1009B800F45001220D500602F3500826F45000228C
:1009C800026A000E012202220B500602F350002692
:1009D800F4500122000E02220E500602F3500126A6
:1009E800F450022202BE01EF05F008360036013647
:1009F80002360306D8B423EF05F014EF05F0D880CB
:100A0800800E08640030000E002201220222D8A0C5
:100A180014EF05F0023201320032034A1EEF05F0EE
:100A28000AAE029E000E26EF05F0010EF7EC00F06C
:100A380026EF05F0020EFEEC00F026EF05F0040E9E
:060A4800EAEC00F01200D0
:0A0A4E00530E0D6E0D2EFED71200A0
:0C0A580000000000000000000000120080
:100A6400240E0C6EB50E0D6E0D2EFED70C2EFCD77B
:060A74000000000012006A
:100A7A00086A080E0C6E003408360450085ED8B0B6
:0E0A8A0002D00826D89000360C2EF5D71200A8
:0E0A9800ACB202D00000FCD79DC0ADFF120032
:080AA6000B6A0B86FF0E120023
:100AAE000B6A0C6A0A6A086A0350D8B4DFEF05F0C5
:100ABE00028E9E0E035E03BE6AEF05F0D8B46AEF97
:100ACE0005F0CFEF05F0036C080E035CD8A09CEF89
:100ADE0005F0036E083600C008F001C000F002C039
:100AEE0001F0026A080E035CD8A09CEF05F0036EBD
:100AFE00083600C008F001C000F0016A080E035C61
:100B0E00D8A09CEF05F0036E083600C008F0006A0E
:100B1E00080E035CD8A09CEF05F0036E0836086A39
:100B2E000350D8A4D890A8EF05F00350D8B4A8EF7E
:100B3E0005F0D8900232013200320832032EA0EFB7
:100B4E0005F00BBC08A0B9EF05F0D8A0B9EF05F081
:100B5E00082AD8B4002AD8B4012AD8B4022A02BE70
:100B6E00E3EF05F00AAEDFEF05F0021E011E001ED8
:100B7E00081E082AD8B4002AD8B4012AD8B4022AEA
:100B8E00DFEF05F0026A016A006A086ADFEF05F01E
:100B9E000B800BAEE8EF05F0026A0AAEE8EF05F047
:100BAE00026E016E006E086E0A360232E8EF05F034
:100BBE00000E0C6AE9EF05F0010E0C6E64DCE9EF35
:100BCE0005F0FF0E0250036E0150026E0050016ED2
:060BDE000850006E120039
:060BE400067E64DC120035
:100BEA000A6A0350D8A40A800750D8A40A820A5075
:100BFA00D8B458EF06F0030AD8B411EF06F00AB0D9
:100C0A000CEF06F006AE56EF06F054EF06F002AE11
:100C1A0054EF06F056EF06F00250800B0A6E029E61
:100C2A000650800B069E0A18D8B422EF06F00A5026
:100C3A00D8B454EF06F056EF06F00750035CD8B468
:100C4A002CEF06F0D8A048EF06F04EEF06F006505B
:100C5A00025CD8B436EF06F0D8A048EF06F04EEFA3
:100C6A0006F00550015CD8B440EF06F0D8A048EF72
:100C7A0006F04EEF06F00450005CD8B458EF06F0C8
:100C8A00D8B04EEF06F00A52D8B456EF06F054EF39
:100C9A0006F00A52D8B454EF06F056EF06F0D880A0
:0E0CAA001200D8901200D880D88412001200D8
:100CB8000050086E0150006E0250016E0350026E23
:100CC800036A0B6A0C6A9E0E036E0A6A020E0C6EA9
:060CD8000AEC01F012001D
:100CDE00F250026EF29E0500FF6A0150FE6E005049
:080CEE00FD6E02BEF28E120041
:100CF6006E0E0001985DD8A0C3D0640E046E98C035
:100D060000F0B8DE120E0024056E066A000E0622FA
:100D160005C000F006C001F0000E06BEFF0E026E12
:100D2600036E003600900136023603360036009018
:100D3600013602360336920E0024F66E410E01206D
:100D4600F76E000E0220F86E0900F5CF00F00900DC
:100D5600F5CF01F00900F5CF02F00900F5CF03F059
:100D6600000E046E000E056E000E066E7E0E076EF9
:100D7600D8DD00C099F001C09AF002C09BF003C014
:100D86009CF0640E046E98C000F074DE08C000F09B
:100D96000A0E046E6FDE090E0024056E066A000E4A
:100DA600062205C000F006C001F0000E06BEFF0ECA
:100DB600026E036E003600900136023603360036A8
:100DC6000090013602360336920E0024F66E410E6E
:100DD6000120F76E000E0220F86E0900F5CF00F034
:100DE6000900F5CF01F00900F5CF02F00900F5CFB3
:100DF60003F099C004F09AC005F09BC006F09CC0B1
:100E060007F08FDD00C099F001C09AF002C09BF098
:100E160003C09CF00A0E046E98C000F02BDE08C0DA
:100E260000F000C001F0000E026E036E046E013683
:100E36000190023603360436013601900236033637
:100E46000436920E0124F66E410E0220F76E000E55
:100E56000320F86E0900F5CF00F00900F5CF01F088
:100E66000900F5CF02F00900F5CF03F099C004F0B0
:100E76009AC005F09BC006F09CC007F052DDACD0CE
:100E860098510A08D8B07AD00A0E046E98C000F0BD
:100E9600F1DD090E0024056E066A000E062205C065
:100EA60000F006C001F0000E06BEFF0E026E036ED5
:100EB60000360090013602360336003600900136C1
:100EC60002360336920E0024F66E410E0120F76EAE
:100ED600000E0220F86E0900F5CF00F00900F5CFEC
:100EE60001F00900F5CF02F00900F5CF03F0000E7E
:100EF600046E000E056E000E066E7E0E076E11DD88
:100F060000C099F001C09AF002C09BF003C09CF0AB
:100F16000A0E046E98C000F0ADDD08C000F000C0F7
:100F260001F0000E026E036E046E01360190023669
:100F36000336043601360190023603360436920E25
:100F46000124F66E410E0220F76E000E0320F86EA5
:100F56000900F5CF00F00900F5CF01F00900F5CF43
:100F660002F00900F5CF03F099C004F09AC005F02D
:100F76009BC006F09CC007F0D4DC2ED098C000F0D1
:100F8600000E016E026E036E0036009001360236C8
:100F9600033600360090013602360336920E0024E0
:100FA600F66E410E0120F76E000E0220F86E090063
:100FB600F5CF00F00900F5CF01F00900F5CF02F0FA
:100FC6000900F5CF03F0000E046E000E056E000E4C
:0A0FD600066E7E0E076EA5DC120009
:100FE0000B6A0A6A096A086A0E6A033408360450F2
:100FF000085E0550D8A0053C095E0650D8A0063C06
:101000000A5E0750D8A0073C0B5EE86AD8A0010E24
:101010000E5E0336070E0C6E0334083609360A36A8
:101020000B360E36045003A012D0085E0550D8A02F
:10103000053C095E0650D8A0063C0A5E0750D8A0C1
:10104000073C0B5EE86AD8A0010E0E5E11D00826A0
:101050000550D8B0053C09260650D8B0063C0A26F3
:101060000750D8B0073C0B26E86AD8B0010E0E2610
:1010700003360C2ED1D70234083609360A360B3621
:101080000E36045003A012D0085E0550D8A0053CCF
:10109000095E0650D8A0063C0A5E0750D8A0073C5F
:1010A0000B5EE86AD8A0010E0E5E11D0082605502E
:1010B000D8B0053C09260650D8B0063C0A26075091
:1010C000D8B0073C0B26E86AD8B0010E0E260236CF
:1010D000070E0C6E0234083609360A360B360E3609
:1010E000045002A012D0085E0550D8A0053C095E4D
:1010F0000650D8A0063C0A5E0750D8A0073C0B5EFD
:10110000E86AD8A0010E0E5E11D008260550D8B0AE
:10111000053C09260650D8B0063C0A260750D8B030
:10112000073C0B26E86AD8B0010E0E2602360C2EBC
:10113000D1D70134083609360A360B360E3604503C
:1011400002A012D0085E0550D8A0053C095E0650EA
:10115000D8A0063C0A5E0750D8A0073C0B5EE86AA0
:10116000D8A0010E0E5E11D008260550D8B0053C5F
:1011700009260650D8B0063C0A260750D8B0073CCE
:101180000B26E86AD8B0010E0E260136070E0C6E4B
:101190000134083609360A360B360E36045001A0E3
:1011A00012D0085E0550D8A0053C095E0650D8A0B4
:1011B000063C0A5E0750D8A0073C0B5EE86AD8A040
:1011C000010E0E5E11D008260550D8B0053C092648
:1011D0000650D8B0063C0A260750D8B0073C0B266C
:1011E000E86AD8B0010E0E2601360C2ED1D7003495
:1011F000083609360A360B360E36045001A012D0D6
:10120000085E0550D8A0053C095E0650D8A0063CF3
:101210000A5E0750D8A0073C0B5EE86AD8A0010E12
:101220000E5E11D008260550D8B0053C09260650A0
:10123000D8B0063C0A260750D8B0073C0B26E86A0F
:10124000D8B0010E0E260036070E0C6E003408369C
:1012500009360A360B360E36045000A012D0085E4E
:101260000550D8A0053C095E0650D8A0063C0A5E91
:101270000750D8A0073C0B5EE86AD8A0010E0E5EAE
:1012800011D008260550D8B0053C09260650D8B024
:10129000063C0A260750D8B0073C0B26E86AD8B0AF
:1012A000010E0E2600360C2ED1D700B00ED0045001
:1012B00008260550D8B0053C09260650D8B0063C93
:0C12C0000A260750D8B0073C0B2612008D
:1012CC000B6A0C6A086A0350D8B4EAEF09F002C042
:1012DC000AF0028E9E0E035E03AEDAEF09F0036C89
:1012EC00080E035CD8A0A7EF09F0036E083600C007
:1012FC0008F001C000F002C001F0026A080E035CA5
:10130C00D8A0A7EF09F0036E083600C008F001C0A2
:10131C0000F0016A080E035CD8A0A7EF09F0036E79
:10132C00083600C008F0006A080E035CD8A0A7EFCE
:10133C0009F0036E0836086A0350D8A4D890B3EFAE
:10134C0009F00350D8B4B3EF09F0D890023201324F
:10135C0000320832032EABEF09F00BBC08A0C4EF2F
:10136C0009F0D8A0C4EF09F0082AD8B4002AD8B4E0
:10137C00012AD8B4022A02BEEEEF09F00AAEEAEF57
:10138C0009F0021E011E001E081E082AD8B4002AED
:10139C00D8B4012AD8B4022AEAEF09F0026A016A29
:1013AC00006A086AEAEF09F00B800BAEF5EF09F062
:1013BC00026A0AAEF5EF09F0026E016E006E086E5D
:1013CC000A360232F5EF09F00C6A000EF6EF09F05E
:1013DC00010E0C6E000E4AEC02F0F6EF09F0FF0E57
:1013EC000250036E0150026E0050016E0850006EE8
:0213FC001200DD
:1013FE00000198BF02D0839E01D0838E98BD02D08B
:10140E00829401D0828498BB02D0829201D08282D3
:10141E0098B902D0829001D0828045B002D08080EF
:10142E0001D0809080822CEC05F0809298B702D08B
:10143E00839E01D0838E98B502D0829401D082848F
:10144E0098B302D0829201D0828298B102D082905B
:10145E0001D0828045B002D0808001D08090808201
:10146E002CEC05F0809245A003D032EC05F002D0B2
:06147E0027EC05F012004E
:10148400800E00019819006E800E000A005CD8B02E
:101494006DD198510008016E01C098F0800E0118BA
:1014A400006E800E6E0A005CD8A0C0D0640E046E7C
:1014B40098C000F0FBEC01F0120E0024056E000E43
:1014C40000BEFF0E066E000E062205C000F006C028
:1014D40001F0000E06BEFF0E026E036E0036009091
:1014E40001360236033600360090013602360336E2
:1014F400920E0024F66E410E0120F76E000E0220BB
:10150400F86E0900F5CF99F00900F5CF9AF00900BB
:10151400F5CF9BF00900F5CF9CF0640E046E98C0E3
:1015240000F0FBEC01F008C000F00A0E046EFBECC6
:1015340001F0090E0024056E000E00BEFF0E066EBB
:10154400000E062205C000F006C001F0000E06BE23
:10155400FF0E026E036E003600900136023603362B
:1015640000360090013602360336920E0024F66EE1
:10157400410E0120F76E000E0220F86E0900F5CF2F
:1015840000F00900F5CF01F00900F5CF02F00900E1
:10159400F5CF03F099C004F09AC005F09BC006F0A3
:1015A4009CC007F094EC04F000C099F001C09AF0DC
:1015B40002C09BF003C09CF00A0E046E98C000F0B9
:1015C400FBEC01F008C000F000C001F0000E00BE0A
:1015D400FF0E026E036E046E01360190023603366E
:1015E400043601360190023603360436920E012485
:1015F400F66E410E0220F76E000E0320F86E09000D
:10160400F5CF00F00900F5CF01F00900F5CF02F0A5
:101614000900F5CF03F099C004F09AC005F09BC00F
:1016240006F09CC007F094EC04F007D2800E0A0A7E
:10163400006E800E9819005C71E20A0E046E98C068
:1016440000F0FBEC01F0090E0024056E000E00BE54
:10165400FF0E066E000E062205C000F006C001F063
:10166400000E06BEFF0E026E036E003600900136B9
:101674000236033600360090013602360336920EE7
:101684000024F66E410E0120F76E000E0220F86E63
:101694000900F5CF99F00900F5CF9AF00900F5CFCC
:1016A4009BF00900F5CF9CF00A0E046E98C000F080
:1016B400FBEC01F008C000F000C001F0000E00BE19
:1016C400FF0E026E036E046E01360190023603367D
:1016D400043601360190023603360436920E012494
:1016E400F66E410E0220F76E000E0320F86E09001C
:1016F400F5CF00F00900F5CF01F00900F5CF02F0B5
:101704000900F5CF03F099C004F09AC005F09BC01E
:1017140006F09CC007F094EC04F08FD198C000F060
:10172400000E98BFFF0E016E026E036E003600902D
:10173400013602360336003600900136023603368F
:10174400920E0024F66E410E0120F76E000E022068
:10175400F86E0900F5CF00F00900F5CF01F009009B
:10176400F5CF02F00900F5CF03F067D1800E981988
:10177400006E800E6E0A005CD8A0C0D0640E046EA9
:1017840098C000F0FBEC01F0120E0024056E000E70
:1017940000BEFF0E066E000E062205C000F006C055
:1017A40001F0000E06BEFF0E026E036E00360090BE
:1017B400013602360336003600900136023603360F
:1017C400C60E0024F66E410E0120F76E000E0220B4
:1017D400F86E0900F5CF99F00900F5CF9AF00900E9
:1017E400F5CF9BF00900F5CF9CF0640E046E98C011
:1017F40000F0FBEC01F008C000F00A0E046EFBECF4
:1018040001F0090E0024056E000E00BEFF0E066EE8
:10181400000E062205C000F006C001F0000E06BE50
:10182400FF0E026E036E0036009001360236033658
:1018340000360090013602360336C60E0024F66EDA
:10184400410E0120F76E000E0220F86E0900F5CF5C
:1018540000F00900F5CF01F00900F5CF02F009000E
:10186400F5CF03F099C004F09AC005F09BC006F0D0
:101874009CC007F094EC04F000C099F001C09AF009
:1018840002C09BF003C09CF00A0E046E98C000F0E6
:10189400FBEC01F008C000F000C001F0000E00BE37
:1018A400FF0E026E036E046E01360190023603369B
:1018B400043601360190023603360436C60E01247E
:1018C400F66E410E0220F76E000E0320F86E09003A
:1018D400F5CF00F00900F5CF01F00900F5CF02F0D3
:1018E4000900F5CF03F099C004F09AC005F09BC03D
:1018F40006F09CC007F094EC04F09FD0800E0A0A16
:10190400006E800E9819005C71E20A0E046E98C095
:1019140000F0FBEC01F0090E0024056E000E00BE81
:10192400FF0E066E000E062205C000F006C001F090
:10193400000E06BEFF0E026E036E003600900136E6
:101944000236033600360090013602360336C60EE0
:101954000024F66E410E0120F76E000E0220F86E90
:101964000900F5CF99F00900F5CF9AF00900F5CFF9
:101974009BF00900F5CF9CF00A0E046E98C000F0AD
:10198400FBEC01F008C000F000C001F0000E00BE46
:10199400FF0E026E036E046E0136019002360336AA
:1019A400043601360190023603360436C60E01248D
:1019B400F66E410E0220F76E000E0320F86E090049
:1019C400F5CF00F00900F5CF01F00900F5CF02F0E2
:1019D4000900F5CF03F099C004F09AC005F09BC04C
:1019E40006F09CC007F094EC04F027D098C000F0F7
:1019F400000E98BFFF0E016E026E036E003600905B
:101A040001360236033600360090013602360336BC
:101A1400C60E0024F66E410E0120F76E000E022061
:101A2400F86E0900F5CF00F00900F5CF01F00900C8
:0C1A3400F5CF02F00900F5CF03F012001E
:101A40000450000A08E10550000A05E1FF0E006E8F
:101A50007F0E016E58D00D6A096A086A01500010A5
:101A6000D8B4000C015005180A6E0ABE0D1E0B6A90
:101A700005AE05D0041E051E042AD8B4052A01AE01
:101A800005D0001E011E002AD8B4012A01500510FD
:101A90000A6E0ABE10D068EC04F00BB020D00DAE78
:101AA000000C001E011E002AD8B4012A081E091EBF
:101AB000082AD8B4092A000C05AE0DD001BE07D003
:101AC0000150096E0050086E016A006AE8D7016A89
:101AD000006A002A000C011E001E0B2ADDD7082A0E
:101AE000D8B4092A0450085CD8A4D9D70550095C99
:101AF000D8A4D5D7096A086A002AD8B4012A01AE49
:081B0000CED70000FF0C12001B
:101B080003500718D8A498EF0DF002500618D8A46F
:101B180098EF0DF001500518D8A498EF0DF000507B
:0E1B28000418D8B4D8841200D8941200120009
:101B36000B6A0A6A096A00500402F4CF09F0F3CF6F
:101B460008F001500502F4CF0BF0F3CF0AF0005075
:101B56000502F3500926F4500A22E86A0B220150C6
:101B66000402F3500926F4500A22E86A0B2208C040
:101B760000F009C001F00AC002F00BC003F0120029
:101B860000019851390806E3300E985D03E3010E13
:081B9600006E01D0006A12008C
:101B9E000450000A12E10550000A0FE10650000A37
:101BAE000CE10750000A09E1FF0E006EFF0E016EF8
:101BBE007F0E026EFF0E036EA8D0086A096A0750E8
:101BCE00D8B47AEF0EF00350D8B47FEF0EF0025077
:101BDE0006180A6E028E068E0E6A02C008F001C04A
:101BEE000CF000C00DF004500D5E0550D8A0053C61
:101BFE000C5E0650D8A0063C085E086A0C6A0D6A98
:101C0E00D8A011EF0EF0D890023201320032083215
:101C1E00010E0E6E0750035ED8A01EEF0EF07E0E64
:101C2E000E240326D8B084EF0EF024EF0EF07E0EB5
:101C3E000E240326D8A089EF0EF0180E0B6E0D366B
:101C4E000C3608360036013602360E360450005E6B
:101C5E000550D8A0053C015E0650D8A0063C025E99
:101C6E0006340E120EA03FEF0EF00D804AEF0EF06E
:101C7E00045000260550D8B0053C01260650D8B0B9
:101C8E00062802260D900B2E26EF0EF070EF0EF0AA
:101C9E00D8900036013602360E360450005E0550DE
:101CAE00D8A0053C015E0650D8A0063C025E063464
:101CBE000E10010B0D26D8B00C2AD8B4082AD8A4C1
:101CCE0070EF0EF008320C320D32032AD8B484EFC6
:101CDE000EF00AAE089E0850026E0C50016E0D50AA
:101CEE00006E8CEF0EF0010E53EC05F08CEF0EF043
:101CFE00020EF7EC00F08CEF0EF0040EFEEC00F08E
:0C1D0E008CEF0EF0080EEAEC00F0120062
:101D1A00AECF01F0ABA202D0AB98AB8801C000F005
:021D2A001200A5
:0A1D2C00000EACB2010E006E1200B2
:101D36000001906B916B846B856B72C000F073C071
:101D460001F074C002F0010E7227000E7323742393
:101D560000C0F6FF01C0F7FF02C0F8FF0900F5CF8B
:101D660000F000C081F00052D8B4A6EF1EF08151F9
:101D7600250A0BE070C0E1FF71C0E2FF81C0E6FFFB
:101D8600704B712B904B912BD8D7826B836B846BE6
:101D9600856B23D08487010E7227000E732374236C
:101DA60059D08481010E7227000E7323742352D0FA
:101DB6008483010E7227000E732374234BD085870C
:101DC600010E7227000E7323742344D08485010EFE
:101DD6007227000E732374233DD072C0F6FF73C0C2
:101DE600F7FF74C0F8FF0900F5CF01F001502D0A86
:101DF600D1E072C0F6FF73C0F7FF74C0F8FF0900A8
:101E0600F5CF01F00150200ACCE072C0F6FF73C096
:101E1600F7FF74C0F8FF0900F5CF01F001502B0A57
:101E2600C7E072C0F6FF73C0F7FF74C0F8FF090081
:101E3600F5CF01F00150230AC2E072C0F6FF73C06D
:101E4600F7FF74C0F8FF0900F5CF01F00150300A22
:101E5600BDE001D09ED784A301D0849184A701D090
:101E6600849572C0F6FF73C0F7FF74C0F8FF0900CF
:101E7600F5CF00F0000E016E00C098F081DE005232
:101E860034E0826B836B82C000F083C001F00A0EDF
:101E9600046E000E056E4CDE72C0F6FF73C0F7FFCF
:101EA60074C0F8FF0900F5CF02F002500024826FDB
:101EB600000E0120836F300E825F000E835B010EE1
:101EC6007227000E7323742372C0F6FF73C0F7FFE8
:101ED60074C0F8FF0900F5CF00F0000E016E00C0D7
:101EE60098F04EDE0052CFE133D072C0F6FF73C0D9
:101EF600F7FF74C0F8FF0900F5CF01F001502A0A78
:101F060027E175C0E9FF76C0EAFFEECF00F0EECF1D
:101F160001F000C0E9FF01C0EAFFEECF82F0EECF8C
:101F260083F075C0E9FF76C0EAFF020EEE24006E6C
:101F3600000EEE20016E75C0E1FF76C0E2FF00C024
:101F4600E6FF01C0E6FF010E7227000E732374231D
:101F560072C0F6FF73C0F7FF74C0F8FF0900F5CF33
:101F660001F001502E0A6EE1010E7227000E732356
:101F7600742372C0F6FF73C0F7FF74C0F8FF090040
:101F8600F5CF01F001502A0A28E175C0E9FF76C0B5
:101F9600EAFFEECF00F0EECF01F000C0E9FF01C08E
:101FA600EAFFEECF7FF0EECF80F075C0E9FF76C096
:101FB600EAFF020EEE24006E000EEE20016E75C0E2
:101FC600E1FF76C0E2FF00C0E6FF01C0E6FF010EBA
:101FD6007227000E7323742334D07F6B806B72C01C
:101FE600F6FF73C0F7FF74C0F8FF0900F5CF00F0E5
:101FF600000E016E00C098F0C3DD005222E07FC0E3
:1020060000F080C001F00A0E046E000E056E90DD31
:1020160072C0F6FF73C0F7FF74C0F8FF0900F5CF72
:1020260002F0025000247F6F000E0120806F300EF8
:102036007F5F000E805B010E7227000E73237423F0
:10204600CED703D07F6B806B858972C000F073C0DA
:1020560001F074C002F0010E7227000E7323742380
:1020660000C0F6FF01C0F7FF02C0F8FF0900F5CF78
:1020760081F0F9D090C000F091C001F0AAEF1EF0F7
:102086008489E3D785852ED1848B85812BD1858361
:1020960029D1848D27D126D1848B848F23D175C0F5
:1020A600E9FF76C0EAFFEECF00F0EECF01F000C008
:1020B600E9FF01C0EAFFEECF8CF0EECF8DF075C0E0
:1020C600E9FF76C0EAFF020EEE24006E000EEE2057
:1020D600016E75C0E1FF76C0E2FF00C0E6FF01C0F9
:1020E600E6FF000E8D1902E1000E8C1904E1290E9F
:1020F6008C6F000E8D6F8E6B8F6B8E518C25E96EFB
:102106008F518D21EA6EEE520BE0010E8E25006E88
:10211600000E8F21016E00C08EF001C08FF0EDD74A
:102126007F5180110AE08F51805D02E18E517F5D03
:1021360004E27FC08EF080C08FF083518F5D02E194
:1021460082518E5D05E28E51825F8F51835B02D094
:10215600826B836B84B716D082C000F083C001F017
:10216600010E825F000E835B005001100BE070C011
:10217600E1FF71C0E2FF200EE66E704B712B904BB3
:10218600912BEAD78EC002F08FC003F0010E8E5D50
:10219600006E000E8F59016E00C08EF001C08FF0E8
:1021A6000250031019E08CC0E9FF8DC0EAFF70C031
:1021B600E1FF71C0E2FFEECFE6FF704B712B010E1F
:1021C6008C25006E000E8D21016E00C08CF001C0C2
:1021D6008DF0904B912BD6D784A716D082C000F0F5
:1021E60083C001F0010E825F000E835B0050011078
:1021F6000BE070C0E1FF71C0E2FF200EE66E704B8F
:10220600712B904B912BEAD798D575C0E9FF76C014
:10221600EAFFEECF00F0EECF01F000C0E9FF01C00B
:10222600EAFFEECF81F075C0E9FF76C0EAFF020E45
:10223600EE24006E000EEE20016E75C0E1FF76C042
:10224600E2FF00C0E6FF01C0E6FF810E8C6F000EC4
:102256008D6F010E8E6F000E8F6F62D7C00E8413C6
:10226600000E85133FD08151000AD8B403D781519F
:102276006C0AD8B405D781514C0AD8B401D781511C
:10228600660AD8B4FFD68151450AD8B4FDD6815125
:10229600650AD8B4FAD68151670AD8B4F8D68151FE
:1022A6006F0AD8B4F6D68151640AD8B4F4D68151EF
:1022B600690AD8B4F0D68151700AD8B4EDD68151E6
:1022C600580AD8B4E9D68151780AD8B4E6D68151ED
:1022D600730AD8B4E4D68151630A97E08151750A2E
:1022E600BDE0B3D7000E8415006E8551070B016E55
:1022F60000500110D8B44DEF1AF085A904D0060E8F
:102306007F6F000E806F75C0E9FF76C0EAFFEECFE3
:1023160000F0EECF01F000C0E9FF01C0EAFFEECF0A
:1023260086F0EECF87F0EECF88F0EECF89F075C05D
:10233600E9FF76C0EAFF040EEE24006E000EEE20E2
:10234600016E75C0E1FF76C0E2FF00C0E6FF01C086
:10235600E6FF046A056A066A076A86C000F087C057
:1023660001F088C002F089C003F0F5EC05F0010E1B
:10237600D8B0000E006E005205E0887F030E84136D
:10238600000E85138A6B8B6B86C000F087C001F048
:1023960088C002F089C003F0046A056A066A076A03
:1023A60084EC0DF0000ED8A4010E006E0052D8B4D5
:1023B6008AD089C000F0016A026A036AFF0E00161D
:1023C600000E01167E0E005E000E015A00C08AF055
:1023D60001C08BF0010E005E000E015A00C08AF0AB
:1023E60001C08BF0030E046E000E056E9BEC0DF023
:1023F60000C08AF001C08BF00A0E046E000E056E56
:1024060020EC0DF000C08AF001C08BF0800E0118A0
:10241600026E800E025C02E1000E005C05E2010E17
:1024260000018A5F000E8B5B00018A510008986FDD
:1024360042EC0AF086C004F087C005F088C006F0BA
:1024460089C007F094EC04F000C08CF001C08DF058
:1024560002C08EF003C08FF0000E046E000E056EF3
:10246600000E066E7F0E076E8CC000F08DC001F068
:102476008EC002F08FC003F0F5EC05F0010ED8B067
:10248600000E006E005205E0010E8A5F000E8B5BA7
:102496001AD0000E046E000E056E200E066E820E19
:1024A600076E8CC000F08DC001F08EC002F08FC0A8
:1024B60003F0F5EC05F0000ED8B0010E006E0052E8
:1024C60002E08A4B8B2B800E006E800E8B19005C0F
:1024D60002E18A51000803E3010E816F02D08AC02F
:1024E60081F085B118D085A315D0800E8B19006EAA
:1024F6007F0E005C02E1FC0E8A5D0BE3800E8B19F9
:10250600006E800E8019005C02E17F518A5D01E257
:1025160001D001D0F1D37F51801106E085A304D00C
:10252600010E7F5F000E805B000E006E8051005C26
:1025360002E17F51080803E2080E816F02D07FC0D6
:1025460081F086C000F087C001F088C002F089C023
:1025560003F0046A056A066A076A84EC0DF0000E49
:10256600D8A4010E006E0052D8B44BD18AC098F0A0
:1025760042EC0AF000C004F001C005F002C006F00B
:1025860003C007F086C000F087C001F088C002F0E3
:1025960089C003F0CFEC0DF000C086F001C087F0D3
:1025A60002C088F003C089F0000181510008986FCD
:1025B60042EC0AF000C004F001C005F002C006F0CB
:1025C60003C007F086C000F087C001F088C002F0A3
:1025D60089C003F0CFEC0DF000C092F001C093F07B
:1025E60002C094F003C095F092C086F093C087F0C5
:1025F60094C088F095C089F092C000F093C001F0B5
:1026060094C002F095C003F057EC05F05CEC06F0C0
:1026160000C004F001C005F002C006F003C007F0D8
:1026260092C000F093C001F094C002F095C003F090
:10263600F2EC05F0000E046E000E056E000E066E3E
:102646007E0E076EF5EC05F0000ED8B0010E006E9A
:1026560000521AE086C000F087C001F088C002F080
:1026660089C003F0000E046E000E056E000E066EA5
:102676007E0E076E58EC02F000C086F001C087F0AF
:1026860002C088F003C089F086C000F087C001F060
:1026960088C002F089C003F057EC05F000018151B3
:1026A600010F096E0A6A000E0A2209C004F00AC068
:1026B60005F0000E0ABEFF0E066E076E0436049085
:1026C60005360636073604360490053606360736CE
:1026D6002A0E0424F66E420E0520F76E000E062022
:1026E600F86E0900F5CF05F00900F5CF06F00900F0
:1026F600F5CF07F00900F5CF08F00850035C08E1B4
:102706000750025C05E10650015C02E10550005CE1
:102716001EE3000186C000F087C001F088C002F009
:1027260089C003F0CD0E046ECC0E056E4C0E066EFF
:102736007B0E076E94EC04F000C086F001C087F0B3
:1027460002C088F003C089F08A4B8B2B5AD086C012
:1027560000F087C001F088C002F089C003F057EC92
:1027660005F081C004F0000E056E066E076E043695
:1027760004900536063607360436049005360636C6
:1027860007362A0E0424F66E420E0520F76E000E5A
:102796000620F86E0900F5CF05F00900F5CF06F022
:1027A6000900F5CF07F00900F5CF08F00850035CE3
:1027B60008E10750025C05E10650015C02E10550A4
:1027C600005C1FE2000186C000F087C001F088C0EF
:1027D60002F089C003F0000E046E000E056E200E96
:1027E600066E820E076E94EC04F000C086F001C0FF
:1027F60087F002C088F003C089F0010E8A5F000EE0
:102806008B5B000185A393D085B791D0800E000A1B
:10281600006E800E8019005C02E17F510A0804E216
:102826000A0E7F6F000E806F86C000F087C001F031
:1028360088C002F089C003F057EC05F000C08CF0A8
:1028460001C08DF002C08EF003C08FF08C518D1147
:102856008E118F1142E00A0E046E000E056E066E92
:10286600076E8CC000F08DC001F08EC002F08FC0E4
:1028760003F0F0EC07F008C000F009C001F00AC050
:1028860002F00BC003F0000E046E031808E10450BA
:10289600021805E10450011802E10050000A1DE18A
:1028A600010E7F5F000E805B0A0E046E000E056E41
:1028B600066E076E8CC000F08DC001F08EC002F06F
:1028C6008FC003F0F0EC07F000C08CF001C08DF073
:1028D60002C08EF003C08FF0B9D7800E8019006E4B
:1028E600800E005C02E181517F5D21E27F51815DB6
:1028F600986F42EC0AF000C004F001C005F002C077
:1029060006F003C007F086C000F087C001F088C05B
:1029160002F089C003F0CFEC0DF000C086F001C0D4
:1029260087F002C088F003C089F07FC081F0050EF1
:1029360000017F25006E000E8021016E0050825F2F
:102946000150835B7F51801103E185B701D004D02C
:10295600010E825F000E835B030E8415006E85C038
:1029660001F0000E01160050011004E0010E825F16
:10297600000E835B84A539D084A312D084A103D032
:102986002D0E776F02D02B0E776F70C0E1FF71C0EE
:10299600E2FF77C0E6FF704B712B904B912B0CD06A
:1029A60084A10AD070C0E1FF71C0E2FF200EE66E7E
:1029B600704B712B904B912B800E006E800E8319FD
:1029C600005C02E1825100080FE270C0E1FF71C0B5
:1029D600E2FF300EE66E704B712B904B912B010E81
:1029E600825F000E835BE8D73AD084B718D0800E9A
:1029F600006E800E8319005C02E1825100080FE22E
:102A060070C0E1FF71C0E2FF200EE66E704B712BC5
:102A1600904B912B010E825F000E835BE8D784A357
:102A260012D084A103D02D0E786F02D02B0E786FB2
:102A360070C0E1FF71C0E2FF78C0E6FF704B712BFA
:102A4600904B912B0CD084A10AD070C0E1FF71C0CD
:102A5600E2FF200EE66E704B712B904B912B86C0D9
:102A660000F087C001F088C002F089C003F057EC7F
:102A760005F000C08CF001C08DF002C08EF003C0DE
:102A86008FF081C000F0000E016E026E036E0036FC
:102A960000900136023603360036009001360236C3
:102AA60003362A0E0024F66E420E0120F76E000E43
:102AB6000220F86E0900F5CF04F00900F5CF05F005
:102AC6000900F5CF06F00900F5CF07F08CC000F03D
:102AD6008DC001F08EC002F08FC003F0F0EC07F05D
:102AE600300E002670C0E1FF71C0E2FF00C0E6FFB5
:102AF600704B712B904B912B7F51801103E185B761
:102B060001D06FD070C0E1FF71C0E2FF2E0EE66EFD
:102B1600704B712B904B912B81517F5F000E805B28
:102B260081534DE0810781C000F0000E016E026EF8
:102B3600036E0036009001360236033600360090EA
:102B46000136023603362A0E0024F66E420E0120A6
:102B5600F76E000E0220F86E0900F5CF04F00900AA
:102B6600F5CF05F00900F5CF06F00900F5CF07F01F
:102B76008CC000F08DC001F08EC002F08FC003F053
:102B8600F0EC07F00A0E046E000E056E066E076E78
:102B9600F0EC07F008C000F009C001F00AC002F02E
:102BA6000BC003F0300E002670C0E1FF71C0E2FFDB
:102BB60000C0E6FF704B712B904B912BB1D77F5124
:102BC60080110FE070C0E1FF71C0E2FF300EE66ECB
:102BD600704B712B904B912B010E7F5F000E805B2B
:102BE600EED784AB0BD070C0E1FF71C0E2FF450E9B
:102BF600E66E704B712B904B912B0AD070C0E1FFA3
:102C060071C0E2FF650EE66E704B712B904B912BF7
:102C1600800E8B19006E800E005C02E1000E8A5D4C
:102C260011E28A5100088A6F8B51000E8B5770C0D3
:102C3600E1FF71C0E2FF2D0EE66E704B712B904BDB
:102C4600912B0AD070C0E1FF71C0E2FF2B0EE66E39
:102C5600704B712B904B912B0A0E046E000E056E75
:102C66008AC000F08BC001F020EC0DF0300E00267B
:102C760070C0E1FF71C0E2FF00C0E6FF0001704BCB
:102C8600712B904B912B0A0E046E000E056E8AC0B6
:102C960000F08BC001F020EC0DF008C000F009C078
:102CA60001F0300E002670C0E1FF71C0E2FF00C0E7
:102CB600E6FF0001704B712B904B912B84A71AD025
:102CC600800E006E800E8319005C02E182510008BE
:102CD60011E270C0E1FF71C0E2FF200EE66E704B9C
:102CE600712B904B912B010E825F000E835B8251FC
:102CF6008311EFE1A0EF0EF085A3F3D0800E8B19C0
:102D0600006E800E005C02E1000E8A5D0AE2010E92
:102D16008A5D006E000E8B59016E00507F5F015078
:102D2600805B86C000F087C001F088C002F089C0D1
:102D360003F057EC05F000C08CF001C08DF002C026
:102D46008EF003C08FF0010E816F81510A0A34E0C4
:102D560081C000F0000E016E026E036E0036009018
:102D66000136023603360036009001360236033647
:102D76002A0E0024F66E420E0120F76E000E022087
:102D8600F86E0900F5CF01F00900F5CF02F0090051
:102D9600F5CF03F00900F5CF04F004508F5D08E18C
:102DA60003508E5D05E102508D5D02E101508C5DA0
:102DB60001E202D0812BC9D781517F5D966F000E4B
:102DC6008059976F96C07FF097C080F08CC000F056
:102DD6008DC001F08EC002F08FC003F05CEC06F0EF
:102DE60000C004F001C005F002C006F003C007F001
:102DF60086C000F087C001F088C002F089C003F0E9
:102E0600F2EC05F000C092F001C093F002C094F01D
:102E160003C095F096C098F042EC0AF092C004F018
:102E260093C005F094C006F095C007F094EC04F04A
:102E3600000E046E000E056E000E066E7E0E076E08
:102E460058EC02F057EC05F000C08CF001C08DF094
:102E560002C08EF003C08FF07F51801142E00A0E4F
:102E6600046E000E056E066E076E8CC000F08DC0F7
:102E760001F08EC002F08FC003F0F0EC07F008C03E
:102E860000F009C001F00AC002F00BC003F0000E0A
:102E9600046E031808E10450021805E104500118F5
:102EA60002E10050000A1DE10A0E046E000E056ED6
:102EB600066E076E8CC000F08DC001F08EC002F069
:102EC6008FC003F0F0EC07F000C08CF001C08DF06D
:102ED60002C08EF003C08FF0010E7F5F000E805B94
:102EE600BBD7800E006E800E8019005C02E17F5118
:102EF6000C0816E37FC098F07BEC06F086C004F061
:102F060087C005F088C006F089C007F058EC02F0CB
:102F160000C086F001C087F002C088F003C089F0C7
:102F260086C000F087C001F088C002F089C003F0B7
:102F3600046A056A066A076A84EC0DF0000ED8A4D6
:102F4600010E006E0052D8B477D086C000F087C05C
:102F560001F088C002F089C003F057EC05F0000EBE
:102F6600046E031808E10450021805E10450011824
:102F760002E10050000A60E1800E006E800E8B199F
:102F8600005C02E18A51010857E28AC098F042ECDF
:102F96000AF000C004F001C005F002C006F003C04C
:102FA60007F086C000F087C001F088C002F089C033
:102FB60003F0CFEC0DF05F0E046E700E056E090E79
:102FC600066E810E076EF5EC05F0010ED8B0000E08
:102FD600006E005206E0090E00018A5F000E8B5B50
:102FE60005D00001080E8A5F000E8B5B8AC098F040
:102FF60042EC0AF000C004F001C005F002C006F081
:1030060003C007F086C000F087C001F088C002F058
:1030160089C003F0CFEC0DF057EC05F000C08CF042
:1030260001C08DF002C08EF003C08FF00001866BE8
:10303600876B886B896B38D086C000F087C001F03B
:1030460088C002F089C003F057EC05F000C08CF090
:1030560001C08DF002C08EF003C08FF08CC000F06E
:103066008DC001F08EC002F08FC003F05CEC06F05C
:1030760000C004F001C005F002C006F003C007F06E
:1030860086C000F087C001F088C002F089C003F056
:10309600F2EC05F000C086F001C087F002C088F0AF
:1030A60003C089F08A6B8B6B010E816F81510A0A0E
:1030B60034E081C000F0000E016E026E036E003631
:1030C600009001360236033600360090013602368D
:1030D60003362A0E0024F66E420E0120F76E000E0D
:1030E6000220F86E0900F5CF01F00900F5CF02F0D5
:1030F6000900F5CF03F00900F5CF04F004508F5D09
:1031060008E103508E5D05E102508D5D02E101503C
:103116008C5D01E202D0812BC9D781517F25006EDB
:10312600000E8021016E8A5100268B51012200502B
:10313600825F0150835B85B704D07F51801101E126
:1031460004D0010E825F000E835B030E8415006EB1
:1031560085C001F0000E01160050011004E0010EBA
:10316600825F000E835B84A539D084A312D084A12C
:1031760003D02D0E796F02D02B0E796F70C0E1FF50
:1031860071C0E2FF79C0E6FF704B712B904B912B1B
:103196000CD084A10AD070C0E1FF71C0E2FF200EFE
:1031A600E66E704B712B904B912B800E006E800E4D
:1031B6008319005C02E1825100080FE270C0E1FF52
:1031C60071C0E2FF300EE66E704B712B904B912B67
:1031D600010E825F000E835BE8D73AD084B718D021
:1031E600800E006E800E8319005C02E18251000899
:1031F6000FE270C0E1FF71C0E2FF200EE66E704B79
:10320600712B904B912B010E825F000E835BE8D7EA
:1032160084A312D084A103D02D0E7A6F02D02B0E78
:103226007A6F70C0E1FF71C0E2FF7AC0E6FF704BB3
:10323600712B904B912B0CD084A10AD070C0E1FF6A
:1032460071C0E2FF200EE66E704B712B904B912BF6
:1032560081C000F0810700524CE081C000F0000EF2
:10326600016E026E036E003600900136023603369A
:10327600003600900136023603362A0E0024F66E1A
:10328600420E0120F76E000E0220F86E0900F5CFFF
:1032960004F00900F5CF05F00900F5CF06F00900A6
:1032A600F5CF07F08CC000F08DC001F08EC002F0A3
:1032B6008FC003F0F0EC07F00A0E046E000E056EE8
:1032C600066E076EF0EC07F008C000F009C001F0CA
:1032D6000AC002F00BC003F0300E002670C0E1FFFA
:1032E60071C0E2FF00C0E6FF704B712B904B912B33
:1032F600AFD7800E006E800E8B19005C02E18A51FA
:1033060000080FE270C0E1FF71C0E2FF300EE66E0A
:10331600704B712B904B912B010E8A5F000E8B5BCD
:10332600E8D7800E000A006E800E8019005C02E16C
:103336007F51080803E2080E816F02D07FC081F03A
:1033460081517F5F000E805B815303E185B701D019
:103356000AD070C0E1FF71C0E2FF2E0EE66E704B20
:10336600712B904B912B81C098F042EC0AF086C0ED
:1033760004F087C005F088C006F089C007F094EC19
:1033860004F066EC09F000C08CF001C08DF002C0BC
:103396008EF003C08FF081534DE0810781C000F0AD
:1033A600000E016E026E036E003600900136023684
:1033B6000336003600900136023603362A0E002404
:1033C600F66E420E0120F76E000E0220F86E09001E
:1033D600F5CF04F00900F5CF05F00900F5CF06F0AA
:1033E6000900F5CF07F08CC000F08DC001F08EC04B
:1033F60002F08FC003F0F0EC07F00A0E046E000E28
:10340600056E066E076EF0EC07F008C000F009C006
:1034160001F00AC002F00BC003F0300E002670C0A7
:10342600E1FF71C0E2FF00C0E6FF704B712B904BCD
:10343600912BB1D77F5180110FE070C0E1FF71C0B1
:10344600E2FF300EE66E704B712B904B912B010E06
:103456007F5F000E805BEED784A71AD0800E006EC9
:10346600800E8319005C02E18251000811E270C0EF
:10347600E1FF71C0E2FF200EE66E704B712B904BA0
:10348600912B010E825F000E835B82518311EFE167
:10349600A0EF0EF0C00E8415016E85C002F0000E7E
:1034A6000216000E021802E1000E0118D8A480D000
:1034B60084A927D075C0E9FF76C0EAFFEECF00F0F9
:1034C600EECF01F000C0E9FF01C0EAFFEECF8CF0BD
:1034D600EECF8DF0EECF8EF0EECF8FF075C0E9FF18
:1034E60076C0EAFF040EEE24006E000EEE20016E9A
:1034F60075C0E1FF76C0E2FF00C0E6FF01C0E6FF4F
:103506002FD075C0E9FF76C0EAFFEECF00F0EECF10
:1035160001F000C0E9FF01C0EAFFEECF00F0EECFF8
:1035260001F0000E01BEFF0E026E036E00C08CF0AD
:1035360001C08DF002C08EF003C08FF075C0E9FFA8
:1035460076C0EAFF020EEE24006E000EEE20016E3B
:1035560075C0E1FF76C0E2FF00C0E6FF01C0E6FFEE
:10356600800E8F19006E800E005C08E1000E8E5DE5
:1035760005E1000E8D5D02E1000E8C5D18E2030E82
:103586008413000E8513006A016A026A036A8C516D
:10359600005E8D51015A8E51025A8F51035A00C056
:1035A6008CF001C08DF002C08EF003C08FF04ED0BB
:1035B60084A927D075C0E9FF76C0EAFFEECF00F0F8
:1035C600EECF01F000C0E9FF01C0EAFFEECF8CF0BC
:1035D600EECF8DF0EECF8EF0EECF8FF075C0E9FF17
:1035E60076C0EAFF040EEE24006E000EEE20016E99
:1035F60075C0E1FF76C0E2FF00C0E6FF01C0E6FF4E
:1036060025D075C0E9FF76C0EAFFEECF00F0EECF19
:1036160001F000C0E9FF01C0EAFFEECF8CF0EECF6B
:103626008DF0000E8E6F8F6F75C0E9FF76C0EAFFD2
:10363600020EEE24006E000EEE20016E75C0E1FF54
:1036460076C0E2FF00C0E6FF01C0E6FF000E80196B
:1036560002E1000E7F190FE1000E006E8F1908E1DE
:1036660000508E1905E100508D1902E18C51000AB7
:1036760002E17F4B802BC00E8415006E00C005F062
:10368600AED0010E816F81510A0A34E081C000F08C
:10369600000E016E026E036E003600900136023691
:1036A6000336003600900136023603362A0E002411
:1036B600F66E420E0120F76E000E0220F86E09002B
:1036C600F5CF01F00900F5CF02F00900F5CF03F0C0
:1036D6000900F5CF04F004508F5D08E103508E5DBC
:1036E60005E102508D5D02E101508C5D01E202D0E0
:1036F600812BC9D782D0010E816F8151080A34E02F
:1037060081C000F0000E016E026E036E003600905E
:10371600013602360336003600900136023603368D
:10372600520E0024F66E420E0120F76E000E0220A5
:10373600F86E0900F5CF01F00900F5CF02F0090097
:10374600F5CF03F00900F5CF04F004508F5D08E1D2
:1037560003508E5D05E102508D5D02E101508C5DE6
:1037660001E202D0812BC9D748D0010E816F815169
:103776000C0A34E081C000F0000E016E026E036E8A
:1037860000360090013602360336003600900136C8
:1037960002360336FA0E0024F66E410E0120F76E4D
:1037A600000E0220F86E0900F5CF01F00900F5CFF2
:1037B60002F00900F5CF03F00900F5CF04F004503C
:1037C6008F5D08E103508E5D05E102508D5D02E1DB
:1037D60001508C5D01E202D0812BC9D70ED0055075
:1037E600000AD8B44ED70550C00AD8B44AD70550F7
:1037F600800A81E00550400AB8E0800E006E800E17
:103806008019005C02E17F51815D03E27FC081F097
:103816000DD0800E8019006E800E005C02E1815191
:103826007F5D04E281C07FF0000E806F82518311BC
:103836000EE0030E8415006E85C001F0000E011621
:103846000050011004E0010E825F000E835B800EC3
:103856008019006E800E8319005C02E182517F5D43
:1038660005E27F51825F8051835B02D0826B836B5E
:10387600C40E8415016E8551080B026E0250080AAB
:1038860002E1400E011808E18251831104E0010EA5
:10389600825F000E835B1CD0C00E8415016E8551BD
:1038A600080B026E0250080A02E1800E011810E1B0
:1038B600800E006E800E8319005C02E182510208C0
:1038C60005E2020E825F000E835B02D0826B836B81
:1038D60084A55DD084A312D084A103D02D0E7B6F66
:1038E60002D02B0E7B6F70C0E1FF71C0E2FF7BC080
:1038F600E6FF704B712B904B912B34D084A10BD0EB
:1039060070C0E1FF71C0E2FF200EE66E704B712BB6
:10391600904B912B27D0C00E8415016E8551080B54
:10392600026E0250080A02E1800E01181BE170C007
:10393600E1FF71C0E2FF300EE66E704B712B904BCB
:10394600912B84AB03D0580E7C6F02D0780E7C6F1F
:1039560070C0E1FF71C0E2FF7CC0E6FF704B712BC7
:10396600904B912B8251831111E070C0E1FF71C021
:10397600E2FF300EE66E704B712B904B912B010ED1
:10398600825F000E835B82518311EFE174D0825116
:10399600831113E084B711D070C0E1FF71C0E2FF5C
:1039A600200EE66E704B712B904B912B010E825FB1
:1039B600000E835B82518311EFE184A312D084A1B0
:1039C60003D02D0E7D6F02D02B0E7D6F70C0E1FFF0
:1039D60071C0E2FF7DC0E6FF704B712B904B912BBF
:1039E6000CD084A10AD070C0E1FF71C0E2FF200EA6
:1039F600E66E704B712B904B912BC00E8415016EA9
:103A06008551080B026E0250080A02E1400E0118A9
:103A16000BE170C0E1FF71C0E2FF300EE66E704B45
:103A2600712B904B912B27D0C00E8415016E8551BA
:103A3600080B026E0250080A02E1800E01181BE113
:103A460070C0E1FF71C0E2FF300EE66E704B712B65
:103A5600904B912B84AB03D0580E7E6F02D0780E1C
:103A66007E6F70C0E1FF71C0E2FF7EC0E6FF704B63
:103A7600712B904B912B800E006E800E8019005C8E
:103A860002E17F51815D0BE270C0E1FF71C0E2FF90
:103A9600300EE66E704B712B904B912BECD77FC09E
:103AA60000F080C001F0010E7F5F000E805B0050C9
:103AB6000110D8B42AD1C00E8415006E00C092F051
:103AC6000AD17FC000F080C001F0000E80BFFF0E5B
:103AD600026E036E0036009001360236033600365B
:103AE60000900136023603362A0E0024F66E420E88
:103AF6000120F76E000E0220F86E0900F5CF04F0E3
:103B06000900F5CF05F00900F5CF06F00900F5CF5D
:103B160007F08CC000F08DC001F08EC002F08FC09F
:103B260003F0F0EC07F00A0E046E000E056E066E4A
:103B3600076EF0EC07F008C000F009C001F00AC0FB
:103B460002F00BC003F0300E0024816FD3D084AB9B
:103B560045D07FC000F080C001F0000E80BFFF0E90
:103B6600026E036E003600900136023603360036CA
:103B76000090013602360336520E0024F66E420ECF
:103B86000120F76E000E0220F86E0900F5CF04F052
:103B96000900F5CF05F00900F5CF06F00900F5CFCD
:103BA60007F08CC000F08DC001F08EC002F08FC00F
:103BB60003F0F0EC07F00F0E0016000E01160216C9
:103BC6000316960E0024F66E420E0120F76E000EC6
:103BD6000220F86E0900F5CF81F044D07FC000F0D6
:103BE60080C001F0000E80BFFF0E026E036E00362D
:103BF6000090013602360336003600900136023652
:103C06000336520E0024F66E420E0120F76E000EA9
:103C16000220F86E0900F5CF04F00900F5CF05F093
:103C26000900F5CF06F00900F5CF07F08CC000F0CB
:103C36008DC001F08EC002F08FC003F0F0EC07F0EB
:103C46000F0E0016000E011602160316850E00242E
:103C5600F66E420E0120F76E000E0220F86E090085
:103C6600F5CF81F047D07FC000F080C001F0000E94
:103C760080BFFF0E026E036E0036009001360236DC
:103C8600033600360090013602360336FA0E00245B
:103C9600F66E410E0120F76E000E0220F86E090046
:103CA600F5CF04F00900F5CF05F00900F5CF06F0D1
:103CB6000900F5CF07F08CC000F08DC001F08EC072
:103CC60002F08FC003F0F0EC07F0070E0014816FCE
:103CD600300E81270FD09251000AD8B4F2D69251F5
:103CE600C00AD8B4EED69251800AD8B430D79251D1
:103CF600400AB9E070C0E1FF71C0E2FF81C0E6FF93
:103D0600704B712B904B912BCAD684A71AD0800E7C
:103D1600006E800E8319005C02E18251000811E2F8
:103D260070C0E1FF71C0E2FF200EE66E704B712B92
:103D3600904B912B010E825F000E835B82518311A3
:103D4600EFE1A0EF0EF090C000F091C001F012007C
:103D560043C0E1FF44C0E2FF70C0E6FF41C000F08F
:0A3D660042C001F06FEC06F01200FD
:0A3D7000000E9EBA010E006E120054
:0E3D7A00459070C098F0FFEC09F045801200F3
:103D88000001676B65C0E9FF66C0EAFFEECF60F02F
:103D98006051000A0EE060C070F0D9DF0001672BA7
:103DA80067516525E96E000E6621EA6EEECF60F078
:043DB800EFD712002F
:103DBC0010D0800E0001656F1AD0C00E656F17D041
:103DCC00940E656F14D0D40E656F11D0800E656F94
:103DDC000ED000016551010AECE06551020AEDE0DC
:103DEC006551030AEDE06551040AEDE0EFD7660575
:103DFC00006E6551002600C065F000C098F0FFEC25
:103E0C0009F04590606B60516725E96E000E6821E2
:103E1C00EA6EEE520BE060516725E96E000E6821E8
:103E2C00EA6EEECF70F0A3DF602BEDD74580120069
:103E3C006A0E00016E6F000E6F6F65C070F066C089
:103E4C0071F067C072F068C073F069C074F06E0EE8
:103E5C00756F000E766F9BEC0EF000C06CF001C01D
:103E6C006DF000506525E16E01506621E26EE66A48
:0A3E7C006CC000F06DC001F01200F0
:103E860092929290949094929494959E809280901F
:103E9600839E82948292829032EC05F032EC05F099
:103EA60032EC05F08282828080822CEC05F08092D2
:103EB60032EC05F080822CEC05F0809232EC05F0B5
:103EC60080822CEC05F0809232EC05F082908082A4
:103ED6002CEC05F0809232EC05F080822CEC05F09B
:103EE60080928292838E80822CEC05F0809232EC56
:103EF60005F0839E828080822CEC05F08092829071
:103F060080822CEC05F0809232EC05F080822CEC5D
:103F160005F08092828080822CEC05F0809232EC53
:103F260005F0829080822CEC05F08092838E82844C
:103F36008282828080822CEC05F0809232EC05F041
:043F460045801200A0
:103F4A00980E416E0A0E426E9D0E436E000E446E2E
:103F5A001A0E3D6E1D0E3E6E000E3F6E000E406E36
:103F6A00700E466E3D0E476E000E486E000E496E8C
:103F7A002C0E516E1D0E526E000E536E000E546EB4
:103F8A00AC8A900EAB6E948E949C9EAA03D0AECF50
:063F9A0000F0FBD712004D
:103FA0000900F5CFE6FF0006FBE10106F9E112008A
:103FB000016A0A0E015C0BE2320EE16E000EE26E47
:103FC0000150E126D8B0E22AE66A012AF2D71200AF
:103FD00061C000F062C001F00A0E046E000E056EB2
:103FE0009BEC0DF00001635100245E6E64510120D2
:103FF0005F6E800E5F18006E800E005C02E1000EA6
:104000005E5CD8A094D000014C0E656F000E666F08
:10401000B10E676F420E686F000E696F5EC06AF086
:104020005FC06BF00BDF4C0E656F000E666FACDE91
:104030004A0E656F000E666FB50E676F420E686FB1
:10404000000E696F5EC06AF05FC06BF0F7DE010EB4
:10405000656F010E666F1E0E676F000E686FAEDE35
:10406000010E656F080E666F4A0E676F000E686F6F
:10407000A5DE0A0E046E000E056E5EC000F05FC085
:1040800001F020EC0DF0A70E0024F66E420E012088
:10409000F76E000EF86E000E01BEFF0EF82209004A
:1040A000F5CF83FF0A0E046E000E056E5EC000F0B1
:1040B0005FC001F020EC0DF008C000F009C001F075
:1040C000A70E0024F66E420E0120F76E000EF86E69
:1040D000000E01BEFF0EF8220900F5CF81FF000E91
:1040E0005F1802E1000E5E180FE1819E330E0B6E29
:1040F000BB0E0C6EDF0E0D6E0D2EFED70C2EFCD7F8
:104100000B2EFAD7000000001A0E0B6E5E0E0C6E1E
:104110006E0E0D6E0D2EFED70C2EFCD70B2EFAD781
:104120000000818E010E5E5E000E5F5A62D71200A3
:0E4130003DC000F03EC001F06FEC06F0120042
:10413E005DEC21F00F0EC112070EB412956A836A60
:10414E00936A800E816EF292F288F18C9E9A9D8A0D
:10415E00F28EF28CB886020EB06E080EAF6EAC8484
:10416E00EDDE030E0B6E8A0E0C6E550E0D6E0D2EC1
:10417E00FED70C2EFCD70B2EFAD7000000007CDEEB
:04418E00FFD7FFD781
:1042BA0010EE1EF0130E006E010E016E720EF66EF7
:0E42CA00420EF76E000EF86ED0EC1FF01200E0
:104192000000007FCDCC4C7B0AD723786F120375C9
:1041A20017B75171ACC5276EBD37066B95BF566701
:1041B20077CC2B645F700961FFE65B5D08E53C3CF0
:0441C2006042221B1A
:1041C6000000007F000020820000488500007A88F9
:1041D60000401C8C0050438F0024749280961896E1
:1041E60020BC3E99286B6E9CF90215A0EC782DC177
:0441F600CAF249E2DE
:1041FA00010000000800000040000000000200006A
:10420A0000100000008000000000040000002000F0
:10421A00000000010000000800000040000000004B
:10422A00010000000A00000064000000E80300002A
:10423A0010270000A086010040420F0080969800D7
:08424A0000E1F50500CA9A3BF2
:10425200010000001000000000010000001000003A
:10426200000001000000100000000001000000102A
:08427200636F756E743A2000C1
:01427A004003
:01427B00261C
:01427C000041
:07427D00286E756C6C29002E
:014284000039
:1042850030313233343536373839616263646566C7
:014295000028
:104296003031323334353637383941424344454676
:0142A6000017
:0A42A700C0F9A4B0999282F880904B
:0442B100256426005A
:0442B500256420005C
:020000040030CA
:0E000000240C1E1EFF8081FF0FC00FE00F407A
:00000001FF
